:020000040800F2
:10000000483C00205596000855970008579700086F
:10001000599700085B9700085D97000800000000F2
:100020000000000000000000000000004927000858
:100030005F97000800000000F1260008D7230008A1
:10004000D5980008D9980008DD980008E1980008C4
:10005000E5980008E9980008ED980008F198000874
:10006000F5980008F9980008FD9800080199000823
:1000700005990008099900080D99000811990008D0
:1000800015990008199900081D9900082199000880
:1000900025990008299900082D9900083199000830
:1000A00035990008399900083D99000841990008E0
:1000B00045990008499900084D9900085199000890
:1000C00055990008599900085D9900086199000840
:1000D00065990008B3430008699900086D99000804
:1000E0007199000875990008799900087D990008B0
:1000F0008199000885990008899900088D99000860
:100100009199000895990008AB8500089999000815
:100110009D990008A1990008A5990008A9990008CF
:10012000AD990008B1990008B5990008B99900087F
:10013000BD990008C1990008C5990008C99900082F
:10014000CD990008D1990008D5990008D9990008DF
:10015000DD990008E1990008E5990008E99900088F
:10016000ED990008F1990008F5990008F99900083F
:10017000FD990008019A0008059A0008099A0008EC
:100180000D9A0008119A0008912F0008159A00088E
:10019000199A00081D9A0008219A0008259A00085B
:1001A0000000000000000000299A000800F5E0703F
:1001B0000268914203D343681A44914202D3806893
:1001C0000028F5D17047DFF86C17086890B94FF434
:1001D000805048604FF480324FF0FF30C8600861B3
:1001E0000420DFF854378A604861C3F8BC01DFF8A7
:1001F0004C0708600120704701F1080313F0070F56
:100200000EBF0023C3F1080303F007031944D21AF9
:100210008161C26042F001034B60091D4FF0280C60
:1002200041F802C0DFF80C271369C36170472DE95C
:10023000FC4B074601F1080010F0070F0FBF89467D
:10024000C0F1080000F0070001EB000902F108010D
:1002500011F0070F06D002F10800C0F1080000F00D
:10026000070002441546A5EB090009EB0306A0EBC5
:10027000030B43F00303C9F80430AE4228BF01F07A
:1002800005FA2879C10758BF01F000FABBF1100F39
:1002900038BF01F0FBF9B869854208D1F9688B4491
:1002A000C7F80CB0BE614BF00100706051E1786995
:1002B00085420AD1B9688B44C7F808B07E614BF01B
:1002C0000100706046F80BB043E1686800F003017C
:1002D000012940F0AC80C008C0000190C0081F2870
:1002E00039D8AC68D5F80C800090454508BF01F0BE
:1002F000CDF9A54208BF01F0C9F968680099C008A6
:10030000C000B0EBC10F18BF01F0C0F9009907F1B0
:10031000280000EBC100844206D039698C42C0F04D
:100320008180E268AA427DD1A04506D10098396853
:10033000012383409943396076E0804506D03969CE
:1003400088456FD3D8F80800A8426BD1C4F80C8058
:10035000C8F8084068E0EC68D5F81880AC420CD0CA
:10036000A8683969884223D3C268AA4204BFA16839
:10037000A9421DD1C460A0601CE005F114010C6805
:1003800034B905F110010C68A4B101E011460C6804
:1003900004F114021068002802BF04F11002106872
:1003A0000028F3D13869814202D300220A6001E0BB
:1003B00001F06CF9B8F1000F36D0E96907F59870D3
:1003C00000EB81000268954208D10460A4B9E86995
:1003D0007968012282409143796025E0386980453F
:1003E00008D3D8F81010A94214BFC8F81440C8F8B0
:1003F000104001E001F04AF9B4B139698C4211D3DF
:10040000C4F81880286928B1884226BF2061846119
:1004100001F03CF9686938B13969884202D36061FA
:10042000846101E001F032F901996D188B4469682B
:100430004908490069604BF0010070604FEADB0435
:1004400046F80BB01F2C23D807F1280000EBC40896
:100450004546BBF1100F38BF01F018F9386820FA93
:1004600004F1CA0705D4012101FA04F404433C60F5
:1004700007E0D8F80800396988422CBF054601F02A
:1004800005F9C8F80860EE60B560C6F80C8060E059
:100490005FEA1B2008BF002123D0B0F5803F28BFB2
:1004A0001F211ED2A0F58072120C02F008029040AB
:1004B000A0F58051090C01F004018840A0F58043AB
:1004C0001B0CC2F10E0203F00203521AD21A98401A
:1004D00002EBD032D01D2BFA00F101F0010101EB4B
:1004E0004201F161002307F59872736102EB81000C
:1004F00033617A6822FA01F3DC0707D4012303FA97
:1005000001F1114379600660B0611DE002681F29A6
:100510001DBF4908C1F119010BFA01F1594600E06C
:1005200002465068C008C000584516D002F11003BA
:10053000C80F03EB8003490018680028F0D1386920
:10054000834204D31E60B261F660B66001E001F040
:100550009DF809F10800BDE8F68B396990688A4278
:1005600028BF8842F3D3C6609660B060F260002076
:10057000B061EEE72DE9FE4F04468B46A5692E4695
:10058000904699463146FFF711FE0268416802EB3A
:10059000010AAAF1270111F007000EBF0021C1F1E5
:1005A000080101F007010AEB0100A0F12F0706F195
:1005B00010018F4238BF374607F11802002101921F
:1005C0000091A8F1280259462046FFF715FE07F1D1
:1005D000080010F0070F18BF01F058F81B207860D2
:1005E00007F1080104F5E07090E80C5081E80C5028
:1005F000C0F800B0C0F80480C0F80C9081600722F9
:100600000198009900E0001D491C00F108035345C2
:100610004260F8D30129D8BF01F038F8B74200F0A2
:100620009580BF1B301D321DC15949084900D15169
:1006300047F0010070604FEAD70BF751BBF11F0F75
:1006400021D804EBCB0000F12805A846102F38BFB5
:1006500001F01CF8206820FA0BF1CA0705D401212B
:1006600001FA0BF10843206006E0A868216988427E
:100670002CBF804601F00AF8AE60C8F80C60C6F8DE
:100680000880F5606FE0380A08BF002123D0B0F57C
:10069000803F28BF1F211ED2A0F58072120C02F0ED
:1006A00008029040A0F58051090C01F00401884037
:1006B000A0F580431B0CC2F10E0203F00203521A94
:1006C000D21A984002EBD032D01D27FA00F101F087
:1006D000010101EB420104EB8102002302F5987055
:1006E000F16173613361626822FA01F3DB0707D4B9
:1006F000012303FA01F1114361600660B0611DE05E
:1007000002681F291DBF4908C1F1190107FA01F14B
:10071000394600E002465068C008C000B84216D012
:1007200002F11003C80F03EB80034900186800288A
:10073000F0D12069834204D31E60B261F660B560D7
:1007400011E003B0BDE8F04F00F0A0BF0BE021695D
:1007500090688A4228BF8842F3D3C6609560B06033
:10076000F2600020B06103B0BDE8F08F2DE9F041E8
:10077000704F05463868884608B9FFF724FDB96808
:1007800001EB08002F30491E20EA010188457DD287
:1007900005F5D876B06828B1326889188A4275D2D2
:1007A000884273D300F092FF01001CBF0C6811F166
:1007B000010F6BD03068201805F5D872306053688F
:1007C000984238BF18467060A86960BB286908B1B4
:1007D000814200D22961316174610020F0614FF0E3
:1007E000FF303A686A62286205F128020020D26070
:1007F000926002F1080757611761801C10322028AF
:10080000F5D34D48854208BFA4F1280228D055F8F9
:10081000040CC00805EBC002A2F108000A19121A64
:10082000283A01461CE005F5E070024600E09268B7
:100830007AB3136857681F44B942F8D1137B1F0776
:1008400027D4AB691768BB4223D3D2F804C06744EE
:10085000BB421ED2A444C2F804C0E868A9692218A9
:100860002846FFF7C9FC1FE08068C0B103689342C7
:10087000FAD1027B130712D4026801604368E418BE
:10088000446043462846BDE8F041D0E40020BDE87E
:10089000F0812A69914238BF29610A19E5E70023EE
:1008A00022462846FFF766FEE8688045EED2A0EBB8
:1008B0000800A969E86001EB0802AA6140F00100A4
:1008C000506048F00300486001F10800BDE8F08185
:1008D00030B4184B1A6882B94FF480525A604FF402
:1008E00080344FF0FF32DA601A610422124D9C60AE
:1008F0005A61C5F8BC21114A1A6011F1400F17D294
:100900008269AAB1C368283199420BD200F5E0711F
:100910000C68A24203D34D682C44A24202D38968DA
:100920000029F5D1C16999423CBF4FF0FF32C26145
:1009300000F0A8BE10370020E02F00206859883C46
:100940002DE9F84F00258946090AC9F1000B08BFB7
:10095000002323D0B1F5803F28BF1F231ED2A1F56D
:100960008072120C02F008029140A1F580531B0C1A
:1009700003F004039940A1F58044240CC2F10E0257
:1009800004F00204D21A121BA14002EBD132D11D95
:1009900029FA01F303F0010303EB4203074607F5CD
:1009A000987858F8230030B31F2B0FBF4C465C08D3
:1009B000C4F1190409FA04F4AC46594600E0640095
:1009C0004268D208D200A2EB09028A4203D2110087
:1009D000054600F06981426910304FEAD47B50F837
:1009E0002B00002A1CBF824294460028E7D18B4688
:1009F0006046B0BBBDBB012202FA03F35B00584264
:100A0000796803430B4000F04E81584203405B1E5F
:100A1000180B00F01000C340590901F00801CB4049
:100A20009A0802F00402D3405C0804F0020408189B
:100A3000E3401018C3F3400620183044F3401B185D
:100A400058F823000DE008464168C908C900A1EB29
:100A5000090159453CBF8B46054601690029F2D181
:100A600040690028F0D1002D00F01D81B868A0EB8E
:100A70000900834580F0178139698D42C0F01181EA
:100A80006868C008C00009EB0B01884218BF00F07D
:100A9000FDFD05EB0906B54280F00381EC68D5F851
:100AA00018A0AC420CD0A8683969884223D3C26828
:100AB000AA4204BFA168A9421DD1C460A0601CE085
:100AC00005F114010C6834B905F110010C68A4B1EA
:100AD00001E011460C6804F114021068002802BFFE
:100AE00004F1100210680028F3D13869814202D362
:100AF00000220A6001E000F0C9FDBAF1000F36D013
:100B0000E86908EB800001688D4209D1046020008B
:100B100014D1E8697968012282409143796026E026
:100B20003869824508D3DAF81010A94214BFCAF810
:100B30001440CAF8104001E000F0A8FDBCB13869CB
:100B4000844212D3C4F818A0286930B139698842A8
:100B500026BF2061846100F099FD686938B1396968
:100B6000884202D36061846101E000F08FFDBBF137
:100B7000100F0CD2D94449F00300291D6860281DCC
:100B800051F8092042F0010240F8092088E049F0BC
:100B9000030068604BF0010070604FEADB0046F82C
:100BA0000BB01F281DD807EBC00101F128043968DC
:100BB00021FA00F2D307A34605D4012202FA00F07D
:100BC0000843386006E0A068396988422CBF834634
:100BD00000F05CFDA660CBF80C60C6F808B0F460CD
:100BE0005EE05FEA1B2008BF002123D0B0F5803F04
:100BF00028BF1F211ED2A0F58072120C02F008023D
:100C00009040A0F58051090C01F004018840A0F546
:100C100080431B0CC2F10E0203F00203521AD21AD7
:100C2000984002EBD032D01D2BFA00F101F0010107
:100C300001EB4201F16100227261326108EB810037
:100C40007A6822FA01F4E30707D4012404FA01F1D7
:100C5000114379600660B0611DE002681F291DBF65
:100C60004908C1F119010BFA01F1594600E00246A9
:100C70005068C008C000584518D002F11003C80FD2
:100C800003EB8003490018680028F0D138698342DB
:100C900004D31E60B261F660B66001E000F0F6FCBD
:100CA00014E100F0F3FC0EE18B46A2E6396990688E
:100CB0008A4228BF8842F1D3C6609660B060F26075
:100CC0000020B061ECE72DE9F84F064688467168D0
:100CD00048420140491E080B00F01000C1404A097B
:100CE00002F00802D1408B0803F00403D9404D08FC
:100CF00005F002051018E9401818C1F3400428183F
:100D000006F5987A2044E14009185AF821104868FD
:100D1000C008C0000D46A0EB080909E0014648687C
:100D2000C008C000A0EB080048453CBF81460D4606
:100D300008690028F2D149690029F0D1306985425B
:100D4000C0F0BF806968C90808EB090BC9005945A4
:100D500018BF00F09BFC05EB08008542009080F076
:100D6000B080EF68AC69AF420CD0A86831698842A6
:100D700023D3C268AA4204BFB968A9421DD1C76083
:100D8000B8601CE005F114010F6837B905F11001D6
:100D90000F68A7B101E011460F6807F1140210684F
:100DA000002802BF07F1100210680028F3D1306953
:100DB000814202D300220A6001E000F067FC002CAF
:100DC00031D0E8690AEB800001688D4208D10760E4
:100DD0008FB9E8697168012282409143716022E015
:100DE0003069844205D32169A94214BF6761276134
:100DF00001E000F04BFCB7B13069874211D3BC6110
:100E0000286930B13169884226BF3861876100F0B6
:100E10003DFC686938B13169884202D378618761E5
:100E200001E000F033FCB9F1100F0BD24BF00300DE
:100E3000291D6860281D51F80B2042F0010240F87E
:100E40000B203DE048F003012A1D696049F00100D4
:100E500042F80800009941F80990D6F808804FEA56
:100E6000D80BBBF1200F28BF00F010FCB8F1000F29
:100E700022D006EBCB00776900F12804A246B8F136
:100E8000100F38BF00F002FC306820FA0BF1CA07DF
:100E900005D4012101FA0BF10843306006E0A06897
:100EA000316988422CBF824600F0F0FBA760CAF887
:100EB0000C70C7F808A0FC60C6F808900098706134
:100EC00004E000F0E3FB0020BDE8F28F05F108002C
:100ED000BDE8F28F2DE9FE4F0546AFF30080F52DFA
:100EE000DFF89C6780F004810B2D31BF10250B3596
:100EF000ED08ED003068EC08E04010F0030F46D03C
:100F0000C04300F00100041906F1280000EBC408FA
:100F1000E700D8F808506868C008C000B84218BF99
:100F200000F0B4FBD5F80890454508BF00F0AEFBD3
:100F30004D4508BF00F0AAFB6868C008C000B84271
:100F400018BF00F0A3FBC84507D13068012101FAA2
:100F500004F420EA040434600DE03069814508D3CC
:100F6000D9F80C10A94204D1C8F80890C9F80C802F
:100F700001E000F08BFB47F00300291D6860281D8D
:100F8000CA5942F00102C25105F10804F8E0B16803
:100F9000A94280F0BE80002800F0A1804FF0010837
:100FA00008FA04F1490000FA04F4484201430C40F5
:100FB00060420440641E200B00F01000C440610930
:100FC00001F00801CC40A20802F00402D4406308FA
:100FD00003F002030818DC401018C4F34007181887
:100FE0003818FC40241806F1280000EBC40AE7007A
:100FF000DAF80890D9F80400C008C000B84218BF59
:1010000000F044FBD9F808B0D14508BF00F03EFB22
:10101000D94508BF00F03AFBD9F80400C008C00069
:10102000B84218BF00F032FBDA4506D1306808FA42
:1010300004F420EA040434600DE031698B4508D3E0
:10104000DBF80C00484504D1CAF808B0CBF80CA076
:1010500001E000F01BFB7F1B45F0030009F10402D7
:10106000C9F8040047F00101515109EB0502019252
:10107000D751B4684FEAD40ABAF1200F28BF00F064
:1010800005FB34B3CDF800A006F12800756900EB2C
:10109000CA0AD346102C38BF00F0F8FA316800981D
:1010A00021FA00F2D30704D408FA00F008433060B4
:1010B00007E0DAF80800316988422CBF834600F067
:1010C000E5FACAF80850CBF80C50C5F808B0C5F8D6
:1010D0000CA0B76009F108040198706150E07068D5
:1010E000C0B329463046FFF7EEFD040011D047E0BB
:1010F00015F1400F28BF4FF0FF350AD20B35ED0830
:101100007068ED0028B129463046FFF719FC04004D
:1011100036D1B068A8421DD3411B726910290AD389
:1011200050197061B16041F001034360415045F0D6
:10113000030555600BE00021B1607161131D40F0A3
:1011400003015160111D1C5844F001040C5002F1C0
:10115000080415E0F06885420DD2401BB169F060CB
:101160004A19B26140F00100506045F003054D603E
:1011700001F1080404E029463046FFF7F7FA044677
:10118000AFF300802046FFF7EEBA002800D1704789
:101190002DE9F047A0F10805AFF30080DFF8E06427
:1011A00031698D42C0F05982686800F00302012A5B
:1011B00000F05382C2084FEAC209C20705EB0908D2
:1011C00039D42C6810F0030F00F0498260420544C6
:1011D0008D42A144C0F041827069854200F0C68012
:1011E000E408202C5ED2D5F80CA0AF68554508BFA6
:1011F00000F04CFABD4208BF00F048FA6868C00829
:10120000C000B0EBC40F18BF00F040FA06F1280090
:1012100000EBC400874205D031698F423FD3FA68A2
:10122000AA423CD1BA452CD13068012101FA04F41C
:1012300020EA04043460454580F00F82D8F8044069
:10124000E00740F10A82A10700F16881B06980459A
:1012500040F09F80F168B5618944C6F80C9049F070
:101260000100686071698D4202D100207061B06038
:10127000F069484580F0F38100213046FFF728FBF4
:10128000EDE1824506D03069824508D3DAF80810CE
:10129000A94204D1C7F80CA0CAF80870CBE700F047
:1012A000F5F9C8E7EC68AF69AC420BD0A868884292
:1012B00022D3C168A94204BFA268AA421CD1C4605B
:1012C000A0601BE005F11402146834B905F11002A6
:1012D00014689CB101E01A46146804F114031868FC
:1012E000002802BF04F1100318680028F3D18A42D5
:1012F00002D30021116001E000F0C8F9002F9AD05C
:10130000E96906F5987000EB81000268954209D101
:101310000460200011D1E869716801228240914384
:10132000716088E73069874205D33969A94214BFE3
:101330007C613C6101E000F0A9F9002C3FF47BAF37
:1013400031698C42ABD3A761286928B1884226BF96
:101350002061846100F09AF9686900283FF46BAF5E
:10136000316988429BD36061846164E798F8040026
:1013700000F0030003287FF45EAFC6F8089049F040
:101380000101D8F8040040084000C8F80400696072
:101390000AE0706980450AD1B16875618944C6F870
:1013A000089049F00100686045F8099057E1E408A9
:1013B000E400A144E408202C3AD2D8F80CA0D8F8D4
:1013C0000870D04508BF00F061F9B84508BF00F0CB
:1013D0005DF9D8F80400C008C000B0EBC40F18BF16
:1013E00000F054F906F1280000EBC400874207D052
:1013F00031698F42C0F08580FA68424540F08180B3
:10140000BA4507D13068012101FA04F420EA040446
:10141000346078E0824506D03069824571D3DAF8CD
:10142000081041456DD1C7F80CA0CAF808706AE0F1
:10143000D8F80C40D8F8187044450DD0D8F80800FA
:101440003169884223D3C268424504BFA16841453F
:101450001DD1C460A0601CE008F114010C6834B90F
:1014600008F110010C68A4B101E011460C6804F108
:1014700014021068002802BF04F11002106800284E
:10148000F3D13069814202D300220A6001E000F00A
:10149000FDF8002F37D0D8F81C1006F5987000EB37
:1014A0008100026890450AD10460200012D1D8F86A
:1014B0001C007168012282409143716023E0306911
:1014C000874205D33969414514BF7C613C6101E025
:1014D00000F0DCF8BCB131698C4212D3A761D8F8B6
:1014E000100028B1884226BF2061846100F0CEF848
:1014F000D8F8140038B13169884202D36061846140
:1015000001E000F0C3F849F00100686045F8099077
:1015100071698D420BD1C6F80890A0E064086400A0
:10152000C8F8044049F00100686045F809904FEAA6
:10153000D907202F22D206F1280000EBC704A046CD
:10154000B9F1100F38BF00F0A1F8306820FA07F1A8
:10155000CA0705D4012101FA07F70743376006E0FF
:10156000A068316988422CBF804600F08FF8A560E2
:10157000C8F80C50C5F80880EC6070E05FEA1920EC
:1015800008BF002123D0B0F5803F28BF1F211ED205
:10159000A0F58072120C02F008029040A0F5805174
:1015A000090C01F004018840A0F580431B0CC2F136
:1015B0000E0203F00203521AD21A984002EBD03204
:1015C000D01D29FA00F101F0010101EB420106F5FD
:1015D0009872002302EB8100E9616B612B617268F4
:1015E00022FA01F3DC0707D4012303FA01F11143C6
:1015F00071600560A8611DE002681F291DBF4908D0
:10160000C1F1190109FA01F1494600E002465068AA
:10161000C008C000484526D002F11003C80F03EBF4
:101620008003490018680028F0D13069834204D350
:101630001D60AA61ED60AD6001E000F027F8306A3E
:10164000401E30620BD1D6F8C80100E08068002847
:10165000FCD14FF0FF30306201E000F017F8AFF33B
:101660000080BDE8F087316990688A4228BF8842CF
:10167000E3D3C5609560A860EA600020A861DEE75A
:10168000E02F002030BC002070470000012000F057
:1016900033B830B4002513E050F8042BD30744BF0F
:1016A000A9F101039A18091F042942F8045BFAD230
:1016B00013468C0744BF15809B1CC90748BF1D708B
:1016C00050F8041B0029E7D130BC7047074908686F
:1016D00008B1002070470648C008C00008600549EE
:1016E000C908C900091A0160704700BF30380020DE
:1016F0004F3C0020483E002080B5AFF30080024AF6
:1017000011001820ABBEFBE7260002002DE9FB4FBD
:1017100082B006001700DDF838800F9CDDF840909D
:10172000DDF844A03000002807D1502080F3118854
:10173000BFF34F8FBFF36F8FFEE7B8F1080F07D3EA
:10174000502080F31188BFF34F8FBFF36F8FFEE7F8
:101750004946380080B200F061FC0500002D61D0E0
:10176000286B390089B200EB8100001FC008C0005F
:101770000190019810F0070F07D0502080F31188D6
:10178000BFF34F8FBFF36F8FFEE7380080B200903A
:10179000534642460399280000F0BAFB049A3100F0
:1017A000019800F067FD2860002C00D0256000F053
:1017B000E2FDDFF84C170868401C0860DFF844279A
:1017C0001068002806D11560086801280CD100F0C7
:1017D000D5FB09E0DFF830070068002804D1106865
:1017E000C06A804500D31560DFF820070168491CF6
:1017F000016000686864DFF8CC170A680123E86AB2
:1018000083401A430A60291DDFF8FC27EB6A142085
:10181000434302EB030000F05BFE5FF0010B00F0BE
:10182000C4FD01E05FF0FF3BBBF1010F13D1DFF816
:10183000D806006800280ED0DFF8C8060068C06A25
:10184000404508D25FF08050DFF858180860BFF3B9
:101850004F8FBFF36F8F584605B0BDE8F08FF8B5D6
:1018600004000025002C2AD0DFF83C08006800287E
:1018700007D0502080F31188BFF34F8FBFF36F8FD5
:10188000FEE700F021F9DFF8840700682018060061
:10189000DFF870763868001D00F041FE002808D19E
:1018A0003868DFF820170A680123C06A83409A432A
:1018B0000A60300000F089FB00F00CF90500002DF3
:1018C00008D15FF08050DFF804180860BFF34F8F35
:1018D000BFF36F8FF1BD70B5040000F04CFD002C1C
:1018E00003D1DFF82006056800E02500281D00F080
:1018F00016FE00280FD1DFF81017EA6A14204243C1
:101900008858002807D1DFF8BC160A680123E86A66
:1019100083409A430A60A86A002803D015F1180092
:1019200000F0FDFDDFF8F066291D300000F0D0FD6D
:1019300000F03BFDDFF8CC150868854227D1DFF8C1
:10194000C8050068002816D0DFF85C07006800288A
:1019500007D0502080F31188BFF34F8FBFF36F8FF4
:10196000FEE75FF08050DFF83C170860BFF34F8F51
:10197000BFF36F8F16E03068DFF88425126890425D
:1019800002D1002008600DE000F0A1F90AE0DFF8C4
:1019900078050068002805D000F0EDFC00F06CFB35
:1019A00000F003FD70BD10B4020000201300002AF7
:1019B00007D1502181F31188BFF34F8FBFF36F8F91
:1019C000FEE75969DFF85046A14209D1996ADFF86C
:1019D0006848A14204D0996A002901D10121080078
:1019E00010BC704770B504002500002C07D15020B2
:1019F00080F31188BFF34F8FBFF36F8FFEE7002D89
:101A000030D0DFF80065306885422BD000F0B3FCA1
:101A10002800FFF7C8FF012822D1281D00F07FFD14
:101A2000DFF8A0150A680123E86A83401A430A60B8
:101A3000291DDFF8D425EB6A1420434302EB030091
:101A400000F046FDE86A3168C96A884208D35FF051
:101A50008050DFF878160860BFF34F8FBFF36F8FA9
:101A600000F0A3FC70BD1FB5002003900020029081
:101A7000002001900020009000238022DFF8BC1796
:101A80000FF25940FFF742FE0400012C11D1502003
:101A900080F31188BFF34F8FBFF36F8F0120DFF802
:101AA000681408600020DFF86415086000F009FC85
:101AB00009E0002C07D1502080F31188BFF34F8F2D
:101AC000BFF36F8FFEE71FBDDFF8DC050168491C1F
:101AD0000160704770B50025DFF8CC6530680028DC
:101AE00007D1502080F31188BFF34F8FBFF36F8F62
:101AF000FEE700F040FC3068401E3060306800288F
:101B000055D1DFF8FC030068002850D0DFF8281713
:101B10000868002827D0C868C068040014F11800BD
:101B200000F0FDFC201D00F0FAFCDFF898140A68B4
:101B30000123E06A83401A430A60211DDFF8C824AC
:101B4000E36A1420434302EB030000F0C1FCE06AA7
:101B5000DFF8B0130968C96A8842D7D30120DFF8DB
:101B6000E4160860D2E7DFF8D866306800280ED0A7
:101B7000306800280BD000F01EF8002803D00120A8
:101B8000DFF8C01608603068401E3060F0E7DFF80C
:101B9000B406006801280AD1012005005FF08050DA
:101BA000DFF828150860BFF34F8FBFF36F8F00F089
:101BB000FCFB280070BD2DE9F0410027DFF8E804A8
:101BC0000068002874D1DFF844040168491C0160F2
:101BD0000468002C1CD1DFF838140868006800285D
:101BE00007D0502080F31188BFF34F8FBFF36F8F62
:101BF000FEE7D1F80080DFF81C0402680A60C0F834
:101C00000080DFF844060168491C016000F034FAE6
:101C1000DFF83886D8F8000084423BD3DFF8F013B1
:101C200008680068002804D15FF0FF30C8F80000A1
:101C300030E00868C068C068050068680600B44203
:101C400002D2C8F8006025E0281D00F068FCA86AF0
:101C5000002803D015F1180000F061FCDFF86413D0
:101C60000A680123E86A83401A430A60291DDFF8E5
:101C70009823EB6A1420434302EB030000F028FC96
:101C8000E86ADFF880120968C96A8842C6D3012071
:101C90000700C3E7DFF87013DFF868020068C26A64
:101CA000142042438858022807D30120070004E08B
:101CB000DFF88C050168491C0160DFF888050068C1
:101CC000002801D0012007003800BDE8F081DFF8CE
:101CD000D8030068002804D00120DFF868150860E8
:101CE0002DE00020DFF85C150860DFF8D8020068FE
:101CF000B0FA80F1D1F11F011422DFF80C3302FB9E
:101D000001F01858002807D1502080F31188BFF344
:101D10004F8FBFF36F8FFEE702FB01F203EB020070
:101D2000426852684260426810F108039A4202D148
:101D30004268526842604068C068724A10607047EA
:101D4000F8B504000D00002C07D1502080F3118855
:101D5000BFF34F8FBFF36F8FFEE76A4F386810F104
:101D60001801200000F0C0FB3868001D00F0D7FB10
:101D7000002808D13868DFF84C120A680123C06ACD
:101D800083409A430A6015F1010F06D13868011D9E
:101D9000DFF8840200F09CFB07E0DFF8B404006881
:101DA00028180600300000F010F9F1BD38B5050024
:101DB000E868C468002C07D1502080F31188BFF375
:101DC0004F8FBFF36F8FFEE714F1180000F0A7FBF1
:101DD000DFF8D4020068002813D1201D00F09FFB1B
:101DE00078490A680123E06A83401A430A60211D8A
:101DF000854AE36A1420434302EB030000F068FBCA
:101E000005E014F11801DFF8300400F061FB3D48F3
:101E10000068C06AE16A884205D201200121DFF82A
:101E20002424116000E0002032BD002807D1502199
:101E300081F31188BFF34F8FBFF36F8FFEE7DFF899
:101E4000081409680160DFF80814096841607047E8
:101E5000F8B504000D00002C07D1502080F3118844
:101E6000BFF34F8FBFF36F8FFEE7002D07D15020D8
:101E700080F31188BFF34F8FBFF36F8FFEE700F041
:101E80007AFA62480668286810F1010F01D100272C
:101E90001AE0DFF8B40300682168884204D0606863
:101EA000864201D301270FE06068301A2968884212
:101EB00009D22968891B6068411829602000FFF752
:101EC000B4FF002700E0012700F06FFA3800F2BDF0
:101ED0000120DFF8701308607047000010B504009F
:101EE00000F072F8484800680228F9D35FF080508B
:101EF00076490860BFF34F8FBFF36F8FF0E70000A4
:101F000000380020F43700200C3800201C38002056
:101F10002DE9F04104000D0016001F005FF00008DD
:101F2000B8F1100F0CD215F8080004EB080181F885
:101F3000340015F80800002802D018F10108EFE776
:101F4000002084F84300082E01D307200600E66233
:101F5000E66400202065201D00F0B7FA14F1180097
:101F600000F0B3FA2461D6F10800A0616462002099
:101F70006065002084F85800BDE8F08170B5002449
:101F8000082C08D22048142101FB04F1084400F079
:101F90008DFA641CF4E7DFF8BC52280000F086FAE2
:101FA000DFF8B462300000F081FADFF88C0200F054
:101FB0007DFA194800F07AFA154805601548066060
:101FC00070BD000008380020704710B50400DFF82D
:101FD0008C0201684C600D4909688C4206D2006889
:101FE000011D0C48006800F07FFA0BE00068011D3D
:101FF0000748006800F078FADFF8500201688C4268
:1020000000D2046010BD000010350020043800200C
:10201000F8370020FC370020783700202DE9F843FE
:1020200007000D00002D06D1380080B2800000F0BE
:102030008BFA060000E02E00002E0BD05C2000F092
:1020400083FA0400002C01D0266304E0300000F085
:10205000DFFA00E00024002C0BD0380080B28600AC
:102060005FF0A508D4F8309042463100484600F0B1
:102070000BFB2000BDE8F283DFF8E4211068006864
:10208000002805D15FF0FF30DFF8C021106007E0C5
:102090001068C068C06801004868DFF8B0211060AF
:1020A0007047000004ED00E020380020DFF8B401A4
:1020B0000068002801D1012007E0DFF8AC010068CA
:1020C000002801D1022000E00020704704ED00E06C
:1020D0002DE9F04104002500002C43D0DFF87C817D
:1020E000E86AD8F80010C96A88423BD2A86900287B
:1020F00005D4D8F80000C06AD0F10800A8611A4ED3
:1021000014276869E96A79433144884226D1281D39
:1021100000F005FA00280CD1E86A7843305800280E
:1021200007D1DFF848110A680123E86A83409A431F
:102130000A60D8F80000C06AE862DFF830110A6867
:102140000123E86A83401A430A60291DE86A07FBF5
:1021500000F706EB070000F0BBF903E0D8F8000039
:10216000C06AE862BDE8F0811035002070B5040057
:1021700025000026002C50D0DFF8E00000688542E2
:1021800007D0502080F31188BFF34F8FBFF36F8FBC
:10219000FEE7286D002807D1502080F31188BFF397
:1021A0004F8FBFF36F8FFEE7286D401E2865E86AEA
:1021B000E96C884231D0286D00282ED1281D00F00E
:1021C000AEF900280FD1DFF8A810EA6A14204243C4
:1021D0008858002807D1DFF894100A680123E86ABC
:1021E00083409A430A60E86CE862E86AD0F108002C
:1021F000A861DFF878100A680123E86A83401A436F
:102200000A60291DDFF86820EB6A1420434302EBC3
:10221000030000F05DF901200600300070BDDFF81A
:102220003C100868002803D00868026D521C026543
:102230000868704700000000643700206C980008B0
:102240001038002014380020183800200C0000201E
:10225000043800203C37002050370020F43700209D
:10226000F83700200C3800202038002008380020E3
:1022700010350020001F5FF080730360001F0160B5
:10228000001F0FF21503036014380260001F7FF077
:1022900002030360203870476E48006810F1010F98
:1022A00007D0502080F31188BFF34F8FBFF36F8F9B
:1022B000FEE7502080F31188BFF34F8FBFF36F8F7D
:1022C000FEE7E0B564480168644A914207D15020B6
:1022D00080F31188BFF34F8FBFF36F8FFEE7006865
:1022E0005F49884207D1502080F31188BFF34F8F98
:1022F000BFF36F8FFEE75B4801780191FF2101700A
:1023000001788DF800109DF8001011F05001564A28
:102310001170564907220A609DF80020120608D560
:102320000A68521E0A609DF8002052008DF80020B5
:10233000F2E70A6812020A600A6812F4E0620A60B0
:10234000019901704A48016851F470010160016807
:1023500051F07041016000F095F800203D4908609F
:1023600000F00CFA4348016851F04041016000F070
:10237000F9F900200EBD502080F31188BFF34F8F74
:10238000BFF36F8F33490A68521C0A60096801293C
:102390000AD139490968090606D080F31188BFF3CC
:1023A0004F8FBFF36F8FFEE770472A4908680028F8
:1023B00007D1502080F31188BFF34F8FBFF36F8F89
:1023C000FEE70868401E08600868002802D1002067
:1023D00080F31188704780B5EFF31180502080F3AF
:1023E0001188BFF34F8FBFF36F8FFFF7E4FB002817
:1023F00003D05FF0805020490860002080F31188EE
:1024000001BD0000EFF30580102811D31B4A1268AC
:10241000125C11000A00144B1B78D2B29A4207D208
:10242000502282F31188BFF34F8FBFF36F8FFEE707
:102430000E4A1268124B1B6813F4E0639A4207D2EB
:10244000502282F31188BFF34F8FBFF36F8FFEE7E7
:10245000704700000400002000ED00E071C20F4151
:1024600070C20F4100E400E042380020F037002045
:1024700020ED00E034EF00E004ED00E0C898000833
:102480000CED00E0064800684FF47A71B0FBF1F003
:10249000401E04490860072003490860704700BFD8
:1024A0000800002014E000E010E000E010F1080156
:1024B00041605FF0FF31816010F10801C16010F1EF
:1024C000080101610021016070470021016170472E
:1024D00042684A6093688B609368596091600861B4
:1024E00003685B1C0360704710B40B6813F1010FA5
:1024F00001D1026907E010F1080254682468A34280
:1025000001D35268F9E754684C604C68A1608A6056
:10251000516008610468641C046010BC70470100CD
:1025200008698A684B689A604A688B685A60426892
:102530008A4201D18A68426000220A610268521E02
:102540000260006870473F002DE9F843040000274F
:10255000FFF7BAFADFF81891D9F80000002804D183
:1025600000F075F80120C9F80000002C0AD041489D
:102570000088241814F0070F04D014F1080014F098
:102580000704041B002C3ED042F2F87084423AD279
:1025900039490D0008688046D8F80400A04207D2E7
:1025A000D8F80000002803D04546D8F80080F3E7AB
:1025B0003248804527D02F482A6803881A441700DC
:1025C000D8F800202A6000884000D8F80420121BA8
:1025D000904212D208EB04000600D8F80400001B59
:1025E0007060C8F8044070680A685268824201D27C
:1025F0000968F9E70A6832600E6021490A68D8F86C
:102600000400121A0A60FFF765FA3800BDE8F28389
:10261000F8B504002600002C18D016480088404267
:1026200006443500FFF750FA6F681348016849689F
:10263000B94201D20068F9E70168296005601049D4
:102640000A68686882180A60FFF744FAF1BD0D490C
:10265000C908C9000848016000224260074A42F2E6
:10266000F8735360002010600800436002607047F8
:10267000CC370020EE3200089C370020A437002021
:10268000000000202C00002062F30F2262F31F42A2
:10269000401810F0030308D0C91A1FD3DB0748BF46
:1026A00000F8012D28BF20F8022D130030B4144685
:1026B0001546103928BF20E93C00FAD8490728BF41
:1026C00020E90C0048BF40F8042D890028BF20F8FD
:1026D000022D48BF00F8012D30BC7047C91818BF43
:1026E00000F8012DCB0728BF00F8012D70476800C6
:1026F000EFF30980BFF36F8F244B1A681EF0100FA1
:1027000008BF20ED108A20E9F04F106008B44FF0A8
:10271000500080F31188BFF34F8FBFF36F8FFFF727
:10272000D6FA4FF0000080F3118808BC19680868D9
:10273000B0E8F04F1EF0100F08BFB0EC108A80F325
:102740000988BFF36F8F7047104B19680868B0E8AD
:10275000F04F80F30988BFF36F8F4FF0000080F3D4
:10276000118870470A480068006880F3088862B6DC
:1027700061B6BFF34F8FBFF36F8F00DFDFF8140038
:10278000016841F47001016070470000F4370020D7
:1027900008ED00E088ED00E010B500F077FB00F0F8
:1027A00067FC00F01DFB0020DFF8781608700020A1
:1027B000DFF8741608700020DFF870160860DFF884
:1027C000701600200870087805280ADA0022DFF861
:1027D00064360C78802044431A550878401C0870F1
:1027E000F1E7002008700878DFF84C16087000F058
:1027F000E3FC10BD2DE9F14300249DF800000328FF
:102800001FD004281DD008280ED00A2824D00D2857
:1028100022D01B2847D0412845D0422843D05B28EE
:1028200041D07F2840F0C380DFF80006016801290D
:1028300006DB0168491E0160032195A000F059FCE8
:10284000C6E00020DFF8E41508600220DFF8D415A8
:10285000087001200400BBE0DFF8E00500780D28D7
:1028600003D19DF800000A281CD0DFF8C0552E685F
:10287000DFF8CC75DFF8CC85C14632003900484618
:1028800000F0E2FC0020296808F801000020286020
:102890000120DFF890150870012004000121A6A096
:1028A00000F027FC94E0DFF880552878002803D05A
:1028B000022824D019D379E09DF800001B2802D10A
:1028C0000120287010E0DFF8640501687F290BDA29
:1028D00001684A1C02609DF80000DFF8642550542E
:1028E0000121684600F005FC60E09DF800005B28CF
:1028F00002D10220287001E00020287056E09DF8E7
:10290000000041280AD1DFF830050178091D0522B1
:1029100091FBF2F302FB131101700DE09DF8000032
:10292000422809D1DFF810050178491C052291FBE6
:10293000F2F302FB131101709DF80000412803D04F
:102940009DF8000042282FD1DFF8E0743868411E5E
:102950003960002804D003214DA000F0CAFBF3E742
:10296000DFF8D064DFF8D08498F80010802041436D
:1029700006EB010000F0BCFC3860396898F80020D4
:102980008020424306EB020000F0B3FB3F6898F85A
:102990000010C9B2802041430E44DFF8A4843A00FD
:1029A0003100404600F050FC0020287010E0DFF8B5
:1029B0007C0401687F290BDA01684A1C02609DF8DB
:1029C0000000DFF87C2450540121684600F091FBA0
:1029D0009DF80000DFF8641408702000C0B2BDE864
:1029E000F28338B5DFF83C14087800284DD0087819
:1029F000012843D100200870DFF84854280000F077
:102A000049F8280000F09AF8040014F1030F05D1EA
:102A1000DFF8340400F0E7F8002037E014F1010F8C
:102A20000DD100200400285D002801D1641CFAE7C4
:102A300005EB0401DFF8140400F0D5F816E014F1FA
:102A4000020F04D1DFF8080400F0CDF80EE0102CDE
:102A500001D100201AE0142C01D1142016E0002C22
:102A600004D02100DFF8EC0300F0BDF832A000F044
:102A7000BAF8DFF8D40300F0B6F806E008780228C8
:102A800003D100200870142000E0002032BD0000B7
:102A90000820080030B401000022885C002807D01C
:102AA000885C202802D0885C092801D1521CF4E7F8
:102AB0001144087800283CD000200200802A0FD260
:102AC000885C00280CD0DFF86C33DFF864030478EE
:102AD0008020444303EB04008B5C8354521CEDE7DD
:102AE000802A0BD2DFF84C33DFF8440304788020CF
:102AF000444303EB0400002383540CE0DFF8343339
:102B0000DFF82C0304788020444303EB04001044D6
:102B1000002300F8013CDFF8180303785B1C052450
:102B200093FBF4F504FB153303700078DFF80833EA
:102B3000187030BC704700000A0000002DE9F8430F
:102B4000060001240020092806DA0021DFF8082306
:102B500042F82010401CF6E700253700387800289E
:102B60001AD03878202802D03878092804D10020DB
:102B70003870012004000DE0002C0BD0082D06DA7F
:102B8000B54840F825706D1C0020040002E07FF07D
:102B9000010021E07F1CE1E7002D1BD0DFF8BC82A3
:102BA000D8F80000002812D0DFF8AC92D8F8001056
:102BB000D9F8000000F0B8FB002805D149462800EC
:102BC000D8F80420904707E018F10C08E8E75FF018
:102BD000FF3001E07FF00200BDE8F28380B59A4843
:102BE00000F001F801BD0EB42DE9F04F86B0824629
:102BF0000DF13C0B9AF80000002800F0EC8000205A
:102C000006001AF80600252805D01AF80600002844
:102C100001D0761CF5E73100504600F06AFAB24464
:102C20009AF800002528E5D11AF1010A00200400D5
:102C300020208146504610F1010A0078253800F026
:102C4000BF800B3809280ED9283864D00B3819D02A
:102C5000401E21D00C385ED0C01E32D0801E4ED017
:102C6000C01E58D0B2E01AF8010C302803D1002C55
:102C700001D1302081460A2044431AF8010C303833
:102C80000419D7E7DBF800001BF1040B00900121C9
:102C9000684600F02EFAADE7DBF800001BF1040BEC
:102CA0000090002007000098002805D500984042B9
:102CB00000900120050001E0002005000A20804668
:102CC00034E0DBF800001BF1040B0190002006004B
:102CD0000198805D002801D0761CF9E73100019849
:102CE00000F007FAA64209D2A41B2000441E0028C7
:102CF00004D0012149A000F0FCF9F6E77AE7DBF8FF
:102D000000001BF1040B0090002007000A20804601
:102D1000002005000AE0DBF800001BF1040B009026
:102D2000002007001020804600200500012006003A
:102D3000009808FB06F1884209D308FB06F0B0FBB7
:102D4000F8F0B04203D108FB06F6641EF0E7002D50
:102D500000D0641E002D09D04846C0B2302805D1ED
:102D60002D2002A9C8557F1C00200500022C0AD383
:102D7000102C08D2641E002C05D002A800F8079081
:102D80007F1C641EF7E7002D03D02D2002A9C85533
:102D90007F1C002E0FD00098B0FBF6F0B0FBF8F1CE
:102DA00008FB11002E490968085C02A9C8557F1C60
:102DB000B6FBF8F6EDE7390002A800F09AF919E73A
:102DC0000121BAF1010000F094F913E7052125482B
:102DD00000F08FF90EE706B0BDE8F00F5DF810FBCC
:102DE00080B52148FFF7FFFE20492148FFF7FBFE91
:102DF0002048C18800918388428801881E48FFF7D7
:102E0000F2FE1E48FFF7EFFE1D491E48FFF7EBFEDE
:102E100003A0FFF7E8FEFFF7E1FE01BD2000000080
:102E20000A0A00003C3800203E380020AC37002061
:102E30003F380020602B0020403800203D38002023
:102E4000B0350020303600201C980008C0920008E1
:102E5000A08C0008E48E0008EC360020CC86000828
:102E6000BC980008249800082094000834940008B6
:102E7000B491000814980008D89200088C900008BB
:102E8000D09100082C9800087047704738B52DED98
:102E9000028B88B00121102000F024FB01211020BA
:102EA00000F020FB01215FF0804000F02BFB0220AE
:102EB0008DF8080002208DF8090000208DF80A0026
:102EC00001208DF80B004FF4C07001902D4C01A92A
:102ED000200000F053FB08220821200000F0B7FB7F
:102EE00008220721200000F0B2FB5FF4E1300390DC
:102EF0000020ADF810000020ADF812000020ADF861
:102F000014000020ADF818000C20ADF816001E4D7E
:102F100003A9280000F0CCFB9FED198ABDEEC80A7A
:102F200010EE100A010089B200EE101AB8EE400A45
:102F300038EE400ABFEE460A10EE104A0001201893
:102F4000124908800121280000F024FC012240F2EF
:102F50002551280000F02DFC52208DF8000007209C
:102F60008DF8010000208DF8020001208DF803008B
:102F7000684600F098FC08B0BDEC028B31BD000043
:102F80000050C34100100240007800400878004023
:102F900080B5FFF779FF00F076F8FFF776FF01BD07
:102FA0000160531E4360002383600023C3607047A9
:102FB0008168C068814201D1012000E00020C0B2D8
:102FC0007047010088684A681018CA68801A496802
:102FD0000840704710B48368C468641C4268144099
:102FE000A34207D00268C368D154C3685B1C42681F
:102FF0001340C36010BC7047020010689168405CC9
:1030000093685B1C51680B409360C0B27047644882
:10301000008810F0200070476148008810F08000A0
:10302000704760480088C0B270470100C9B25D4A6D
:103030001180704780B540F22771594800F0F9FBC4
:1030400002BD80B540F22551554800F0F2FB02BDAB
:1030500080B5012240F22771514800F0AAFB01BD62
:1030600080B5002240F227714D4800F0A2FB01BD5F
:1030700080B500204C4908704FF400724B494C4811
:10308000FFF78EFF01BD38B50024FFF7D3FF0028FE
:1030900017D0FFF7C1FF00280CD0454D2800FFF7DF
:1030A00087FF002806D12800FFF7A6FFC0B2FFF770
:1030B000BCFFEEE73E48FFF77BFF002801D0FFF79B
:1030C000CFFFFFF7BEFF002812D0FFF7A0FF0028B8
:1030D00008D0FFF7A6FFC0B23649096888472043E9
:1030E0000400F2E72000C0B2002801D000F08DF803
:1030F00031BDF8B504000D002B480078002835D10B
:103100002B4F3800FFF75DFFA84200DA05000026CC
:10311000AE420CDAA05D0A2803D10D213800FFF77A
:1031200059FFA15D3800FFF755FF761CF0E7380026
:10313000FFF73EFF00282FD1FFF792FFFFF76CFF4C
:1031400000280BD03800FFF733FF002806D13800E5
:10315000FFF752FFC0B2FFF768FFEFE73800FFF755
:1031600027FF002818D1FFF773FF15E00026AE42B5
:1031700012DAA05D0A2806D1FFF74EFF0028FBD027
:103180000D20FFF752FFFFF747FF0028FBD0A05D9F
:10319000FFF74BFF761CEAE73000F2BD00000000AD
:1031A000007800400478004043380020E02D0020E3
:1031B0008C370020B8980008F8B5032200210120C0
:1031C00000F002FC1C4908600020039000200290DF
:1031D000002001900520009000234FF480721749D1
:1031E0000FF20900FEF792FA05B000BD10B5040019
:1031F00000235FF0FF3200210F48006800F04FFD10
:103200000128F5D1FFF7EDFBF2E710B50C4C2100DA
:103210000948006800F0E9FC206801280AD120680C
:10322000002807D05FF0805006490860BFF34F8F39
:10323000BFF36F8F10BD0000B03700203498000836
:10324000B437002004ED00E062B38B0708D0521EB3
:1032500011F8013B00F8013B00F024808B07F6D108
:10326000830740F0208000BF103A07D330B4B1E8A4
:103270003810103AA0E83810F9D230BC530724BFF8
:10328000B1E80810A0E8081044BF51F8043B40F82A
:10329000043BD20724BF31F8022B20F8022B44BF95
:1032A0000B7803707047121F17D35B0009D151F8D8
:1032B000043B20F8023B1B0C121F20F8023BF6D205
:1032C0000BE051F8043B00F8013B1B0A20F8023BDD
:1032D0001B0C121F00F8013BF3D238BF121D521E07
:1032E00024BF11F8013B00F8013BF8D870470800F3
:1032F00000F10103810704D010F8011B820781B19E
:10330000FAD10268A2F10131914311F0803104BF7A
:1033100050F8042FF6E709BAB1FA81F100EBD100B9
:10332000401CC01A7047000081EA00039B0717D1B8
:10333000820707D010F8012B11F8013BBAB19A426D
:10334000F6D014E002680B689A42A2F1013301BF83
:10335000934313F0803F50F8042F51F8043FF3D00B
:1033600010F8012B11F8013B0AB19A42F8D0D01A9B
:10337000704700002DE9F84F0100002200230024CF
:103380000225002002260227DFF8CCE1DEF80080CB
:1033900018F00C08C446BCF1000F09D0BCF1040FB2
:1033A0000AD0BCF1080F0BD0BCF10C0F38D067E08D
:1033B000DFF8AC210A6066E0DFF8A8210A6062E06D
:1033C000DFF898C1DCF80020C2F380521000DCF86E
:1033D000002012F03F02160000280BD0DFF88421F5
:1033E000B2FBF6F9DCF80020C2F3881202FB09F9FF
:1033F0004C460AE0DFF86821B2FBF6F9DCF8002061
:10340000C2F3881202FB09F94C46DCF80020C2F333
:103410000142521C52001500B4FBF5F20A6032E082
:10342000DFF838C1DCF80020C2F380521000DCF86D
:10343000002012F03F02160000280BD0DFF82421F4
:10344000B2FBF6F9DCF80020C2F3881202FB09F99E
:103450004C460AE0DFF80821B2FBF6F9DCF8002060
:10346000C2F3881202FB09F94C46DCF80020C2F3D3
:103470000272521C52001700B4FBF7F20A6002E01D
:10348000DFF8DC200A60DEF8002012F0F0021209FA
:103490000092DFF8D4A0009A1AF80220D1F800C0F8
:1034A0003CFA02FCC1F804C0DEF8009019F4E059BF
:1034B0005FEA99291AF809C0D1F804B03BFA0CFB6D
:1034C000C1F808B0DEF800E01EF4604E5FEA5E3E30
:1034D0001AF80EA0D1F804B03BFA0AFBC1F80CB000
:1034E000BDE8F18F0A00D2B2002A05D0DFF87C20B7
:1034F00013680343136004E0DFF87020136883430C
:10350000136070470A00D2B2002A04D0184A136828
:103510000343136003E0164A136883431360704744
:103520000A00D2B2002A04D0124A1368034313607F
:1035300003E0104A13688343136070470A00D2B255
:10354000002A04D00C4A13680343136003E00A4ABC
:103550001368834313607047083802400438024000
:103560000024F40000127A001000002030380240DD
:10357000403802404438024024380240F0B500226E
:10358000002300240025102D5CD2012616FA05F236
:1035900013000A681A4014009C4251D103270268A4
:1035A000AC465FFA8CFC5FEA4C0C17FA0CFC32EA72
:1035B0000C020260D0F800C091F804E02A00D2B2F8
:1035C00052001EFA02FE5EEA0C0CC0F800C00A7936
:1035D000012A02D00A79022A22D18268AC465FFA17
:1035E0008CFC5FEA4C0C17FA0CFC32EA0C0282608D
:1035F000D0F808C091F805E02A00D2B252001EFAB5
:1036000002FE5EEA0C0CC0F808C04268AE4032EA26
:103610000606466042688E79AE40B6B232434260DA
:10362000C6682A00D2B25200974036EA0707C76040
:10363000C668CF792A00D2B2520097403E43C66096
:103640006D1CA0E7F0BD0183704741837047F0B562
:10365000002400251300DBB211F00706F6B2B60015
:1036600013FA06F60B009BB2DB1000EB83070B008E
:103670009BB2DB1000EB8303D3F820C05FF00F0E8A
:1036800011F00703DBB29B001EFA03FE3CEA0E0CAE
:10369000C7F820C00B009BB2DB1000EB83031B6A52
:1036A00033430F00BFB2FF1000EB87073B62F0BD52
:1036B0002DE9F04F85B004000D00002600275FF0D3
:1036C00000085FF00009A8890028218A31F44051E0
:1036D000E8880143009100982082B4F80CA02C489F
:1036E00010EA0A0AA988288901436889014351EA36
:1036F0000A0AA4F80CA0B4F814B03BF4407BA889E3
:1037000050EA0B0BA4F814B001A8FFF733FE1E48D3
:10371000844202D01D48844201D1049900E00399FB
:10372000A089000407D5192000FB01F02A68520087
:10373000B0FBF2F206E0192000FB01F02A689200CB
:10374000B0FBF2F26420B2FBF0F6360133001B0945
:10375000642000FB1323A089000408D5D800323070
:103760006427B0FBF7F010F00700064307E01801EC
:1037700032306427B0FBF7F010F00F0006432681CB
:1037800005B0BDE8F08F00000010014000140140BA
:10379000F3E9FFFF0A00D2B2002A04D0828952F472
:1037A0000052828104E083894DF6FF7213408381C9
:1037B00070472DE9F0410023002500275FF0000E3F
:1037C0000C0040F66A16A4B2B44280460C00E4B283
:1037D0006409E4B20E00B6B216F01F065FF0010CE9
:1037E0001CFA06FC012C02D118F10C0806E0022C90
:1037F00002D118F1100801E018F114081300DBB22F
:10380000002B06D0D8F800305CEA0303C8F800307B
:1038100005E0D8F8003033EA0C03C8F80030BDE802
:10382000F0810A0092B292050A0092B2D24302805D
:103830007047F0B4040000270020002200260B008F
:1038400040F66A159BB2AB420D00EDB26D09EDB2C8
:103850000B009BB213F01F035FF0010C1CFA03F383
:10386000012D02D1A089034006E0022D02D1208A59
:10387000034001E0A08A03400A0092B2120A92B209
:103880001CFA02F220880240002B03D0002A01D04B
:10389000012000E00020C0B2F0BC70471F49014386
:1038A0001F4A11607047F0B4002200230F24C17832
:1038B000002920D01A49096811F4E061D1F5E061CE
:1038C000090AD1F104052B00E4B20C4145789D4072
:1038D0008678264035432D012A00124D0678AA55D8
:1038E0000125067816F01F06B5400F4E07787F11A8
:1038F00046F8275009E00121057815F01F05A94079
:103900000A4D0678761145F82610F0BC7047084A33
:103910000A400243074B1A60704700000000FA0596
:103920000CED00E000E400E000E100E080E100E0F8
:1039300080FFFF1F08ED00E070B506000C003500A9
:10394000002D07D1502080F31188BFF34F8FBFF3B4
:103950006F8FFEE7FEF70FFD2968EA6B286C424384
:1039600001EB020068600020A8632868A86029684D
:10397000EA6B521E286C424301EB0200E8605FF0E4
:10398000FF306864A864002C12D12869002817D081
:1039900015F11000FEF70AFA012811D15FF08050EE
:1039A000DFF81C160860BFF34F8FBFF36F8F07E07F
:1039B00015F11000FEF77AFD15F12400FEF776FDF3
:1039C000FEF7F3FC012070BD2DE9F04705000C0067
:1039D00090460026002D07D1502080F31188BFF3B8
:1039E0004F8FBFF36F8FFEE7002C02D15FF0000A0C
:1039F00003E004FB05FA1AF1010A1AF15400FEF77C
:103A0000A3FD0700002F14D0B946002C02D1C9F83D
:103A1000009003E017F15400C9F80000C9F83C50C9
:103A2000C9F8404001214846FFF786FF89F85080D9
:103A30004E46002E07D1502080F31188BFF34F8FE0
:103A4000BFF36F8FFEE73000BDE8F0872DE9F74345
:103A500080460D00994600244646002E07D150208E
:103A600080F31188BFF34F8FBFF36F8FFEE7002DF8
:103A700002D1306C002801D1012000E00020C0B24A
:103A8000002807D1502080F31188BFF34F8FBFF378
:103A90006F8FFEE7B9F1020F02D1F06B012801D15F
:103AA000012000E00020C0B2002807D1502080F3A0
:103AB0001188BFF34F8FBFF36F8FFEE7FEF7F6FA63
:103AC000002802D10298002801D1012000E0002046
:103AD000C0B2002807D1502080F31188BFF34F8F68
:103AE000BFF36F8FFEE7FEF746FCB06BF16B8842C9
:103AF00002D3B9F1020F27D14A462900300000F065
:103B0000A4F90700706A00280FD016F12400FEF710
:103B10004DF9012814D15FF08050DFF8A41408603B
:103B2000BFF34F8FBFF36F8F0AE0002F08D05FF015
:103B30008050DFF88C140860BFF34F8FBFF36F8F96
:103B4000FEF733FC01204EE00298002803D1FEF777
:103B50002CFC002047E0002C04D16846FEF765F9F4
:103B600001200400FEF721FCFDF7AEFFFEF703FC89
:103B7000706C10F1010F01D100207064B06C10F175
:103B8000010F01D10020B064FEF70FFC02A96846C6
:103B9000FEF75EF9002820D1300000F002FA00287C
:103BA00015D0029916F11000FEF7CAF8300000F0A7
:103BB000B7F9FDF78FFF002895D15FF08050DFF84F
:103BC00000140860BFF34F8FBFF36F8F8BE7300097
:103BD00000F0A6F9FDF77EFF85E7300000F0A0F9C0
:103BE000FDF778FF0020BDE8FE83F8B506000C0065
:103BF0003500002D07D1502080F31188BFF34F8F7F
:103C0000BFF36F8FFEE7286C002807D0502080F3A9
:103C10001188BFF34F8FBFF36F8FFEE7286800282E
:103C200002D16868002801D1012000E00020C0B264
:103C3000002807D1502080F31188BFF34F8FBFF3C6
:103C40006F8FFEE7FEF7DEFBEFF31187502080F366
:103C50001188BFF34F8FBFF36F8FA86BE96B88425A
:103C600019D2A86B401CA863A86C10F1010F0DD1EC
:103C7000686A00280DD015F12400FEF797F8002897
:103C800007D0002C05D00120206002E0A86C401C69
:103C9000A864012000E0002087F31188F2BD2DE91F
:103CA000F74380460D001E0000244746002F07D131
:103CB000502080F31188BFF34F8FBFF36F8FFEE763
:103CC000002D02D1386C002801D1012000E0002035
:103CD000C0B2002807D1502080F31188BFF34F8F66
:103CE000BFF36F8FFEE7FEF7E1F9002802D10298DB
:103CF000002801D1012000E00020C0B2002807D137
:103D0000502080F31188BFF34F8FBFF36F8FFEE712
:103D1000FEF731FBB86B00283BD0D7F80C90290098
:103D2000380000F0E2F8002E1BD1B86B401EB863DB
:103D30003868002802D1FEF772FA786038690028E6
:103D400023D017F11000FEF731F801281DD15FF0E4
:103D50008050DFF86C120860BFF34F8FBFF36F8F96
:103D600013E0C7F80C90786A00280ED017F12400F1
:103D7000FEF71CF8002808D05FF08050DFF84012F2
:103D80000860BFF34F8FBFF36F8FFEF70EFB01206C
:103D900059E00298002803D1FEF707FB002052E00B
:103DA000002C04D16846FEF740F801200400FEF71D
:103DB000FCFAFDF789FEFEF7DEFA786C10F1010FD0
:103DC00001D100207864B86C10F1010F01D10020FE
:103DD000B864FEF7EAFA02A96846FEF739F8002847
:103DE0002BD1380000F0CFF8002820D03868002808
:103DF00006D1FEF7C0FA7868FEF76AF9FEF7D5FA41
:103E0000029917F12400FDF79BFF380000F088F8B5
:103E1000FDF760FE00287FF47BAF5FF08050DFF895
:103E2000A0110860BFF34F8FBFF36F8F70E73800AA
:103E300000F076F8FDF74EFE6AE7380000F070F803
:103E4000FDF748FE0020BDE8FE832DE9F0470500A0
:103E50000E0014000027286C002809D128680028CB
:103E60003DD16868FEF782F907000020686036E0FF
:103E7000002C14D1D5F84080B146D5F808A04246B0
:103E800049465046FFF7E0F9A868296C0844A86045
:103E9000A8686968884222D32868A8601FE0D5F81E
:103EA0004080B146D5F80CA0424649465046FFF73F
:103EB000CBF9E868296C49420844E860E868296859
:103EC000884204D26868296C49420844E860022CA0
:103ED00005D1A86B002802D0A86B401EA863A86B70
:103EE000401CA8633800BDE8F0872DE9F0410400CC
:103EF0000D00206C002811D0E068216C0844E060BF
:103F0000E0686168884201D32068E060266CE76859
:103F1000A846320039004046FFF796F9BDE8F08127
:103F200038B50400FEF727FAA06C01280EDB606AA2
:103F300000280BD014F12400FDF738FF002801D031
:103F4000FDF7C6FFA06C401EA064EDE75FF0FF35F3
:103F5000A564FEF72AFAFEF70EFA606C01280EDB64
:103F6000206900280BD014F11000FDF71FFF002876
:103F700001D0FDF7ADFF606C401E6064EDE7656445
:103F8000FEF713FA31BD38B50400FEF7F4F9A06B63
:103F9000002801D1012500E00025FEF706FA2800DF
:103FA00032BD38B50400FEF7E6F9A06BE16B88423C
:103FB00001D1012500E00025FEF7F7F9280032BD08
:103FC00004ED00E0DFF87806018851F4006101801B
:103FD0007047DFF87006018851F400610180704776
:103FE000DFF864060188090604D5DFF86016098841
:103FF000090607D4DFF854160988490604D5008855
:10400000400601D5012000E00020C0B27047DFF873
:104010003C060088800607D5DFF82C060088C0F330
:10402000401010F0010000E00020C0B27047DFF83F
:104030001C06018851F0800101807047DFF80C16E2
:104040000A884FF67F7002400A807047DFF8FC054F
:10405000018851F0400101807047DFF8F0150A88AF
:104060004FF6BF7002400A80704780B5012240F2CF
:104070002551DFF8D405FFF79CFB01BD80B5002278
:1040800040F22551DFF8C005FFF793FB01BDDFF8D3
:10409000C0050088C0B270470100C9B2DFF8B02582
:1040A0001180704738B504000D00280010F0050F8E
:1040B0001ED0FFF7D2FF0020A4F830030020A4F8A0
:1040C0002E02002084F82802012084F82902002012
:1040D00084F82B0294F82B0284F82A020020A4F81A
:1040E0002E020020A4F8300300202077FFF7AEFF57
:1040F000280010F00A0F14D0FFF7C0FF0020A4F82A
:104100002401002084F82300012084F821000120EC
:1041100084F82200002084F8200000202077FFF798
:10412000A4FF31BD0100087F002803D101200877DA
:10413000002012E0087F02280ED191F82802012801
:104140000AD091F83603012806D191F834034A7A4F
:10415000904201D2012000E00020704738B50400F1
:10416000B4F83003204490F8305294F82902012822
:1041700004D042D3032832D022D33EE02800C0B27C
:104180007E2803D02800C0B27D280FD12800C0B2FD
:104190007E2801D1022000E0032084F829027D203E
:1041A00005002800C0B2FFF777FF08E0B4F830033D
:1041B000401CA4F830032800C0B2FFF76DFF1CE0DC
:1041C000B4F83003401CA4F830035E200500012041
:1041D00084F829022800C0B2FFF75EFF0DE0B4F8B2
:1041E0003003401CA4F830035D200500012084F852
:1041F00029022800C0B2FFF74FFF31BD2DE9F84F6B
:1042000004000D0016001F00DFF848040068D0F815
:104210000480FFF7D7FE012084F8280294F83403C5
:10422000401C84F834034046D8F80410884700281E
:1042300004D094F83403617A88421DD194F836038F
:10424000012819D196F8019059F0200986F80190BB
:10425000BA1E3100002000F00FFA06EB0701891E9C
:104260000870491C020092B2120A0A70012284F8F6
:104270003523002284F83623012084F82902002007
:10428000A4F83003012084F82A02002084F82B02CD
:10429000A4F82E72B946B24614F50C7B4A46514634
:1042A0005846FEF7D1FF5FF07E0B022000F052FA75
:1042B0005846C0B2FFF7F0FEFFF7B9FEBDE8F18F38
:1042C000DFF8901308600021A0F830130021A0F857
:1042D0002E12DFF88413016070472DE9F0410400CD
:1042E00000206077002084F828020020A0770020BA
:1042F000E077002084F82000012084F821000120CC
:1043000084F82200012084F82902002084F82A027F
:10431000002084F82B020020A4F824010020A4F837
:1043200026020020A4F82E020020A4F8300300206A
:1043300084F82300002084F833030020A4F830031D
:104340000020A4F82E0200202077002084F83703F4
:10435000002656F0200656F00106DFF800737E7046
:1043600002223900002000F087F90500BD70280006
:1043700080B2000AF870DFF8E882207A88F800003E
:1043800088F8016002224146002000F075F907001C
:1043900088F80270380080B2000A88F80300B1483B
:1043A0000078042803DB217AAF48FEF71CFCBDE847
:1043B000F0812DE9F041A7480568FFF728FE0028A5
:1043C00000F0A380FFF763FE04002000C0B27E2847
:1043D0000ED1B5F82401002806D0012085F821006F
:1043E000012085F8230043E0022085F821003FE00A
:1043F00095F8210001280CD19A480078022804DBA6
:104400002100C9B29948FEF7EEFB6869401C68615B
:104410002EE095F82200022819D12000C0B25E28B3
:1044200002D17E20040005E02000C0B25D2801D149
:104430007D200400B5F82401411CA5F8241180B2A8
:10444000284480F82440012085F8220010E0200054
:10445000C0B27D2803D1022085F8220008E0B5F81B
:104460002401411CA5F8241180B2284480F824407E
:1044700095F82300002848D095F82400297A88422E
:104480003DD12869401C2861754895F8251042786F
:10449000914223D195F826108278914216D195F851
:1044A0002710C078814211D1002085F83403002004
:1044B00085F83503012085F83703002085F8390396
:1044C000002085F8380300F0DAF918E06548007834
:1044D000022814DB6648FEF786FB10E0B5F824617D
:1044E00015F1240715F59378320039004046FEF7A0
:1044F000ABFEB5F82401A5F8260200F0AAF90020C9
:10450000A5F82401002085F82300FFF769FD0028A5
:1045100044D095F82A0200280CD17E200400012006
:1045200085F82A02002085F82B022000C0B2FFF790
:10453000B3FD33E0B5F83003B5F82E12884203D04E
:104540002800FFF70BFE29E0B5F83003B5F82E126E
:10455000884223D195F82B0200280DD17E2004003B
:10456000FFF76CFDFFF772FD2000C0B2FFF794FD6E
:10457000012085F82B0211E095F83503012806D1BA
:10458000FFF727FD002085F837030020287700205B
:1045900085F82802FFF761FD00F071F9BDE8F081B0
:1045A00038B52C480468656894F83703012824D18D
:1045B000207F012803D094F83603012811D102206E
:1045C000207728006968884700281ED0012084F8D9
:1045D000360328480168491C01602800A9688847FB
:1045E00013E002202077012084F835031B4A0423BE
:1045F00011782000FFF702FE07E02800696888476D
:10460000002802D02800A968884731BD38B5114874
:1046100004680123B4F8262214F593716068656874
:104620002D68A84731BD80B50A48016891F8391353
:10463000491C006880F83913142000F08BF801BD84
:10464000180002401A000240001001400C10014006
:1046500004100140D0370020F4960008D437002021
:10466000D83700202000002098940008E896000821
:10467000AC940008DC37002030B413005A1E002B25
:104680000DD00400A4B2074D80B20B78584000F062
:10469000FF0035F8100090EA1420491CEDE780B2C5
:1046A00030BC7047207D000810B4020052B2002ACE
:1046B00009D50A012D4B040064B214F00F04234401
:1046C00003F8042C04E00A01294B040064B21A55D3
:1046D00010BC7047BFF34F8F26490A6812F4E0629E
:1046E000254802430A60BFF34F8F00BFFDE710B5B6
:1046F0000400601EB0F1807F01D301200EE0601E37
:104700001E4908600F215FF0FF30FFF7CDFF00204A
:104710001B49086007201B490860002010BDF8B540
:1047200000215FF00060FFF7F2F84FF44070FFF7F0
:10473000B5F86846FEF71EFE01984FF47A71B0FB9B
:10474000F1F0FFF7D4FF0F215FF0FF30FFF7ACFF70
:1047500005B000BD10B504000120B4FBF0F0FDF77A
:104760007EF810BD80B5FFF7B5FF01BD18ED00E084
:1047700000E400E00CED00E00400FA0514E000E0C5
:1047800018E000E010E000E0F8B50322002101206D
:10479000FFF71AF945490860032200210120FFF7BD
:1047A00013F9434908600020039000200290002084
:1047B00001900620009000234FF480723D490FF2D3
:1047C0004900FCF7A3FF0020039000200290002086
:1047D00001900620009000234FF4807236490FF2BA
:1047E0004900FCF793FF0020039000200290002076
:1047F0000190062000900023802230490FF24900EA
:10480000FCF784FF05B000BD10B5040000235FF085
:10481000FF32002125480068FFF741FA0128F5D151
:10482000FFF7F4FEF2E7000010B5040000235FF08C
:10483000FF3200211E480068FFF731FA0128F5D148
:10484000FFF7AEFEF2E7000010B50400FFF7EBFE45
:10485000FCE710B51A4C210014480068FFF7C5F9B1
:10486000206801280AD12068002807D05FF0805016
:1048700014490860BFF34F8FBFF36F8F10BD10B5A1
:10488000114C21000A480068FFF7AFF920680128A1
:104890000AD12068002807D05FF0805009490860DD
:1048A000BFF34F8FBFF36F8F10BD0000E4370020C0
:1048B000E037002004960008009700080C970008D5
:1048C000E837002004ED00E0EC37002038B50400A4
:1048D0000D0029002000FEF727FD002801D101204E
:1048E00000E00020C0B232BD704770B504000D007A
:1048F0000026DFF888156868FFF7E8FF002809D070
:1049000000F02AFC06003100C9B2DFF87405FEF79A
:104910006AF917E0686800280CD0DFF86815686845
:10492000FFF7D4FF002805D195A16868FFF7CEFFF7
:10493000002807D0DFF85005FEF755F9DFF84C05E1
:10494000FEF751F970BDF8B504000D006868002845
:104950001CD0A868002814D0E868002811D0E868A6
:1049600000F097FC0600A86800F093FC0700686858
:1049700000F08FFC320092B2390089B200F01FFDC6
:104980001CE0DFF80C05FEF72EF917E06868002838
:104990000CD0DFF8F0146868FFF798FF002805D105
:1049A00077A16868FFF792FF002807D0DFF8E404DA
:1049B000FEF719F9DFF8E004FEF715F90020F2BD63
:1049C00070B588B004000D00DFF8D0146868FFF7F8
:1049D0007DFF002802D000F0AEFDCEE0DFF8C0146D
:1049E0006868FFF773FF00281CD0A868002814D05F
:1049F000E868002811D0286900280ED0286900F046
:104A000048FC0600E86800F044FC320092B2010065
:104A100089B2A86800F0AFFDAFE0DFF87404FEF7DC
:104A2000E2F8AAE0DFF87C146868FFF74FFF00287F
:104A30000ED0A868002806D0A86800F02AFC80B232
:104A400000F044FE99E0DFF84804FEF7CCF894E06B
:104A5000DFF854146868FFF739FF00282FD0A868E2
:104A6000002827D0E868002824D068461E2100F0DE
:104A7000D1FEE86800F00DFC0600A86800F009FC13
:104A80006A46310000F0F5FE3EA0FEF7ACF80026C5
:104A9000E86800F0FEFB864207DA6846815DDFF8D1
:104AA0000C04FEF7A0F8761CF2E7694636A0FEF784
:104AB0009AF862E0DFF8D803FEF795F85DE0DFF8DA
:104AC000F0136868FFF702FF002807D000F071FEBE
:104AD00080B201002DA0FEF786F84EE0DFF8D41377
:104AE0006868FFF7F3FE002808D000F05EFE0600BD
:104AF000310049B225A0FEF776F83EE089A168684A
:104B0000FFF7E4FE002802D000F04BFE35E06868B5
:104B100000280CD0DFF86C136868FFF7D7FE002878
:104B200005D117A16868FFF7D1FE002820D0DFF873
:104B30008803FEF758F8DFF88403FEF754F8DFF82F
:104B40008003FEF750F8DFF87C03FEF74CF8DFF83F
:104B50007803FEF748F8DFF87403FEF744F8DFF84F
:104B60007003FEF740F8DFF86C03FEF73CF804E052
:104B70006968DFF86403FEF736F8002008B070BDFE
:104B80003F0000000A0000000A25730025640A00A7
:104B900070B588B004000D00DFF840136868FFF7B7
:104BA00095FE00281FD0A868002818D0E8680028C3
:104BB00015D02869002812D0E86800F06AFB0600CA
:104BC000A86800F066FB2A69310001F056F8A86871
:104BD00000F05FFB0100C248FEF705F89EE0AC481C
:104BE000FEF701F89AE0AE496868FFF76FFE00280B
:104BF0001FD0A868002818D0E868002815D02869B8
:104C0000002812D0E86800F044FB0600A86800F015
:104C100040FB2A69310001F0ABF8A86800F039FBCD
:104C20000100AF48FDF7DFFF78E09948FDF7DBFFB3
:104C300074E09D496868FFF749FE002831D0A868F4
:104C400000282AD0E868002827D068461E2100F0F6
:104C5000E1FDE86800F01DFB0600A86800F019FB04
:104C60006A46310000F0F2FFA86800F012FB010074
:104C70009C48FDF7B8FF0026E86800F00AFB864272
:104C800006DA6846815D8948FDF7ADFF761CF3E7DB
:104C9000694659A0FDF7A7FF40E07D48FDF7A3FF57
:104CA0003CE07E496868FFF711FE002813D0A86831
:104CB00000280CD0A86800F0ECFA00F0B6FFA86855
:104CC00000F0E7FA01008848FDF78DFF26E0704804
:104CD000FDF789FF22E0686800280BD06949686801
:104CE000FFF7F4FD002805D162A16868FFF7EEFD2B
:104CF00000280FD07D48FDF776FF7D48FDF773FF54
:104D00007C48FDF770FF7C48FDF76DFF7B48FDF7A1
:104D10006AFF03E069687048FDF765FF002008B08E
:104D200070BD00006170700070B504000D00744823
:104D3000FDF759FF7348FDF756FF734E30680028A2
:104D40000CD00A20FFF706FDB068002804D0B26836
:104D500031686E48FDF747FF0C36EFE7002070BD65
:104D600038B504000D006A48C188009183884288E4
:104D700001886848FDF737FF002032BD38B50400D0
:104D80000D00FEF72DF8002032BDF8B504000D002F
:104D900000266148FDF727FF0127A74207DA55F8EB
:104DA000272039005D48FDF71EFF7F1CF5E7002036
:104DB000F2BD38B504000D002FA0FDF714FF0A2046
:104DC000FFF7C8FCFFF7CEFC002032BD38B5040069
:104DD0000D006868002806D0686800F05AFAC0B272
:104DE00001F038F806E001F038F80100C9B24C488B
:104DF000FDF7F9FE002032BD0A25730038B5040026
:104E00000D0048496868FFF761FD002809D0464950
:104E1000A868FFF75BFD00282AD04448FDF7E3FEB1
:104E200026E043496868FFF751FD002803D0414858
:104E3000FDF7D9FE1CE0686800280BD011496868AE
:104E4000FFF744FD002805D10AA16868FFF73EFD81
:104E5000002809D03848FDF7C6FE3848FDF7C3FEE4
:104E60003748FDF7C0FE03E069681B48FDF7BBFE4D
:104E7000002032BD3F0000000A0A0A00AC9700087B
:104E80009493000894970008C48D0008E88D0008EA
:104E9000349500084C900008748D0008B497000801
:104EA000BC970008C4970008CC970008D497000866
:104EB000DC970008E49700087C91000844950008FE
:104EC0000C8E0008308E0008548E0008788E000882
:104ED0009C8E0008C08E0008A89300087C960008ED
:104EE000BC93000854950008649500086C90000875
:104EF000F08B00081C8C0008488C0008748C00089B
:104F000090920008D0930008CC860008EC97000827
:104F100014980008A892000874950008E49300080B
:104F2000F4970008FC97000804980008F89300081C
:104F30000C9800088495000898910008D08A000811
:104F4000008B000880B501210420FEF7CBFA012177
:104F50004FF48070FEF7E4FA01215FF48000FEF761
:104F6000C1FA01214FF48070FEF7E8FA00214FF4F6
:104F70008070FEF7E3FA01BDE0B503208DF8040070
:104F800000208DF807001020009069466B48FEF75E
:104F9000F5FA07BD18B58FB0694C200000F062FF2C
:104FA000200001F039F80028FAD10020009065486F
:104FB000019065480290002003900A200490002090
:104FC00005904FF4806006904FF4006007904FF416
:104FD000005008904FF4807009905FF480300A9080
:104FE00000200B9001200C9000200D9000200E90CE
:104FF0006946200000F0D8FF0121200000F0FEFFEC
:10500000200001F009F80128FAD110B010BD10B548
:105010008AB0002006904FF470600990002008903C
:105020005FF44030079006A801F056F80020009089
:1050300001208DF8040001208DF805000020029069
:10504000002003900020049001208DF814003F4CB4
:105050006946200001F01AF8072301220E212000E2
:1050600001F059F80121200001F0F6F8012120009B
:1050700001F0E4F80121200001F03FF8200001F0E8
:10508000D8F80AB010BD80B5FFF75CFFFFF782FFCC
:10509000FFF772FFFFF7BBFF01BDF0B40100002274
:1050A000002300200026022401250A2D1CD20926F7
:1050B0003200AA4216D331F8126001EB420737F8EA
:1050C000027CBE420CD201EB420636F8026C330081
:1050D00031F8126001EB420727F8026C21F8123018
:1050E000521EE6E76D1CE0E72600D4F10A05AE4249
:1050F00004D231F816504019761CF6E76400D4F15A
:105100000A04B0FBF4F080B2F0BC704718B585B06B
:10511000040000200A280BD20B4901EB40012200B9
:10512000D2B231F812106A4622F81010401CF1E792
:105130006846FFF7B2FF06B010BD0000000802404D
:10514000706402404C2001402837002000200140BC
:1051500080B5FFF798FF01BD10B500240120FFF7CF
:10516000D5FF0100080080B2B0F54D7F00D3641C6C
:105170002000C0B210BD00002DE9FC4F83B00BB180
:1051800000241C600446254600E06D1C2878A0F130
:105190000903052BF9D32028F7D02D2816BF2B287B
:1051A00015F8018B4FF02B08002A019103D4012A36
:1051B00001D0252A03DB002947D00C6045E0002AF6
:1051C0000ADD102A04BF2878302802BF687840F032
:1051D000200078280ED10AE02878302818BF0A224B
:1051E00008D1687840F02000782802D11022AD1C48
:1051F00000E00822029500E06D1C28783028FBD0E2
:105200004FF0000926A02E46CA468DF800009346AE
:1052100007E09DF80070C71BCA46FFB20BFB097977
:105220006D1C2978A1F141001A2838BF203100BF38
:105230001BA05A4601F026F80028EAD10299A9429B
:10524000484604D1019800B1046000201EE000BF70
:105250001DA2AE1B12F80B10761A002E0FD405DC1F
:10526000C71B03D3B7FBFBF1514508D0AFF3008058
:10527000049808B1012101604FF0FF3003E0B8F15C
:105280002D0F08BF4042019901B10D6005B0BDE886
:10529000F08F00E0000000230A2200216CE70000EC
:1052A000303132333435363738396162636465669C
:1052B0006768696A6B6C6D6E6F7071727374757606
:1052C0007778797A0000000000002115110E0D0C8E
:1052D0000B0B0A0A0909090909080808080808083F
:1052E0000707070707070707070707070700000063
:1052F00080B586B001210220FEF7F4F802208DF877
:10530000150001208DF8140000208DF816000120F2
:105310008DF817004FF40050049004A94F48FEF791
:105320002DF900200390002002904D4801900420A8
:105330000090002380224B490FF20900FCF7E6F9A8
:1053400007B000BDF8B50400474D64202880474EE3
:10535000642030800120FCF782FA454F3888401CD9
:10536000388044480178012910D143490A68521C09
:105370000A600A68414B1B689A4207D100220A6002
:10538000002101704FF4FA70288030803888298815
:10539000884205D14FF400513048FEF754F9D9E75F
:1053A00038882988328812FA81F18842D2DB4FF49A
:1053B00000512A48FEF749F900203880CAE770B545
:1053C00004000D001600002C46D02D48007804285B
:1053D00007DB33009BB22A0092B221002948FDF777
:1053E00002FC14F1010F03D100202249087007E0EC
:1053F0002248046001201F49087000201E490860EF
:10540000280080B2002809D14FF400511348FEF75C
:105410001AF913480068FCF75EFA1DE0300080B20C
:10542000002809D14FF400510C48FEF70EF90C4842
:105430000068FCF750FA0FE000200D4908804FF497
:1054400000510648FEF701F9074805800748068025
:1054500003480068FCF7C6FA70BD00000004024073
:10546000C0370020949500083438002036380020DA
:105470003838002041380020BC370020B8370020E1
:1054800020000020CC8C0008F8B5002003900020FC
:105490000290DFF82803019004200090002380226E
:1054A000DFF81C130FF21500FCF730F905B000BD52
:1054B0000120DFF8101308707047000038B50400B1
:1054C0000020FCF708FAC04D2878002802D00128F7
:1054D00004D0F8E70020FCF7FEF9F4E74FF4FA6097
:1054E000FFF738F900F0D0FA012803D100208DF839
:1054F000000002E001208DF800000020B3490860A0
:105500000020B349088000202870AE4D287801287B
:1055100005D1012269464CF2010000F03BFF00205A
:105520002870AC480078042804DB9DF80010AA48D5
:10553000FDF759FBC7E710B50124A34908780028F7
:105540000DD101200870A3480078042802DBA3488D
:10555000FDF749FB99480068FCF744FA08E09D48CC
:105560000078022802DB9E48FDF73DFB0020040086
:105570002000C0B210BD2DE9FE4F05000E00140042
:10558000934F2000398880B2884240F08E803000EE
:1055900080B2C1287DDADFF83482D8F80000002814
:1055A0002CD1300080B204281BDB5FF00409019588
:1055B000DFF830A2D3464A4601995846FDF744FE2B
:1055C0002D1D361FD8F80000001DC8F800008148C6
:1055D0000078052812DBDAF800108348FDF703FB9A
:1055E0000CE07C480078022802DB8048FDF7FBFADB
:1055F00044F20800ADF80000009865E02A00310090
:1056000089B2D8F8000000F052F9012835D1DFF84E
:10561000E0914A46310089B2D8F8000000F029F93B
:10562000320092B22900484600F0CCFE002818D182
:10563000D8F8000010FA86F0C8F800006548007835
:10564000052807DB3B88320092B2D8F80010694881
:10565000FDF7C9FA3888401C38800020ADF80000FA
:105660002EE05C480078022802DB6348FDF7BBFAB5
:1056700044F20500ADF8000022E044F20400ADF869
:1056800000005448007802281ADB5C48FDF7ABFAAA
:1056900016E050480078022802DB5948FDF7A3FACB
:1056A00044F20800ADF800000AE04A4800780228F9
:1056B00002DB5448FDF797FA44F20900ADF8000008
:1056C0003888ADF802000098BDE8FE8F2DE9F84358
:1056D000040001250026200080B2002834D03B4F72
:1056E0003868002830D05FF0040804223D493000BB
:1056F00080B2FEF7C1FF81463868C12813D33868ED
:10570000C03880450FD23A4E3200C021404600F0EA
:10571000B0F8C0223100484680B2FEF7ADFF8146A6
:1057200018F1C008EBE7324E32003968B1EB0801DE
:10573000404600F09EF83A68B2EB08023100484655
:1057400080B2FEF799FF0600200080B2002805D045
:105750003000210080B289B2884205D1214A04215B
:10576000002000F0A4F812E01A4F3878022806DB77
:10577000320092B2210089B22348FDF734FA38781A
:10578000022802DB2148FDF72EFA00200500002048
:105790000E49086000200E4908802800C0B2BDE80C
:1057A000F28380B500F0A5F901BD194890F9000019
:1057B0007047002005490860C02070472C38002041
:1057C000489700084438002045380020243800203D
:1057D0003A3800202000002010950008509300085F
:1057E0002496000828380020AC9800080C91000886
:1057F00050340020C08B0008388900083496000817
:1058000068930008449600085C920008BC8F00086A
:10581000210000200022FCF73BBF0000BFF34F8FA8
:10582000DFF854130A6812F4E062DFF85003024311
:105830000A60BFF34F8F00BFFDE7010000200200A8
:10584000D2B2182A0ADADFF838230300DBB202EBFF
:1058500083025268914201D3401CF0E70200D2B2A9
:10586000182A01DB17221000C0B280B270470088EE
:1058700070472DE9F04104000D001600DFF80483A5
:1058800018EB0408C0480078062803DB4146BF48EF
:10589000FDF7A9F90027AF4207D24046FFF7E7FF1F
:1058A000F05318F10208BF1CF5E7BDE8F0812DE9BF
:1058B000F14F82B00C00150009260127002000904E
:1058C0005FF00008AF48DDF8089010EB090981454A
:1058D00005D3B9F1026F02D25FEAC97012D5DFF8C1
:1058E000A8A29AF80000022803DB4946A848FDF761
:1058F0007AF99AF80000022802DBA648FDF773F94E
:1059000000205FE0DFF880A29AF80000062803DBA1
:1059100049469F48FDF767F900F09AFD002000F026
:1059200085FDCB4614EB090000909B48834527D2A8
:105930000098834524D25846FFF799FF4FF6FF7130
:1059400088421AD05846FFF778FF804601219348D5
:10595000424692B230F8120000F08FFD060030008F
:10596000C0B20928E4D0002007009AF800000228FD
:1059700002DB8B48FDF737F902E01BF1020BD7E79A
:105980003000C0B2092816D10098814513D2298869
:10599000484600F0BAFD092809D0002007009AF80F
:1059A0000000022802DB7F48FDF71DF903E019F132
:1059B0000209AD1CE8E7012000F038FD00F056FDBB
:1059C0003800C0B2BDE8FE8F10B5040000F040FD05
:1059D000002000F02BFD0121200080B200F04DFDE1
:1059E000012000F023FD00F041FD10BD2DE9F04144
:1059F00004000D002000FFF720FF06002800FFF73D
:105A00001CFF0700B04638004146C0B2C9B2884208
:105A100009D362484146C9B230F81100FFF7D4FFFC
:105A200018F10108EFE75848007806280BDB5B48BF
:105A30003900C9B230F811203100C9B230F8111064
:105A40005948FDF7D0F8BDE8F08138B504000D00E5
:105A5000A54217D32000FFF70AFF4FF6FF718842D7
:105A60000ED049480078022808DB2000FFF7FFFE2F
:105A7000020092B221004D48FDF7B5F8002002E087
:105A8000A41CE5E7012032BD38B53E4C484D290045
:105A90002000FFF7ABFF29002000FFF7D6FF012809
:105AA00008D039480078022802DB4248FDF79BF80D
:105AB000002000E0012032BD80B5FFF7AFFE01BD40
:105AC00038B5304C00252800C0B204280FDA280071
:105AD000C0B2205CFF2808D12B480078022802DBE6
